{"abi":[{"type":"function","name":"channelCreators","inputs":[{"name":"","type":"string","internalType":"string"}],"outputs":[{"name":"","type":"address","internalType":"address"}],"stateMutability":"view"},{"type":"function","name":"channelExists","inputs":[{"name":"","type":"string","internalType":"string"}],"outputs":[{"name":"","type":"bool","internalType":"bool"}],"stateMutability":"view"},{"type":"function","name":"createChannel","inputs":[{"name":"channelName","type":"string","internalType":"string"}],"outputs":[],"stateMutability":"nonpayable"},{"type":"function","name":"sendMessage","inputs":[{"name":"msgHash","type":"bytes32","internalType":"bytes32"},{"name":"channel","type":"string","internalType":"string"}],"outputs":[],"stateMutability":"nonpayable"},{"type":"event","name":"ChannelCreated","inputs":[{"name":"channelName","type":"string","indexed":false,"internalType":"string"},{"name":"creator","type":"address","indexed":true,"internalType":"address"},{"name":"timestamp","type":"uint256","indexed":false,"internalType":"uint256"}],"anonymous":false},{"type":"event","name":"MessageSent","inputs":[{"name":"msgHash","type":"bytes32","indexed":true,"internalType":"bytes32"},{"name":"sender","type":"address","indexed":true,"internalType":"address"},{"name":"channel","type":"string","indexed":false,"internalType":"string"},{"name":"timestamp","type":"uint256","indexed":false,"internalType":"uint256"}],"anonymous":false},{"type":"error","name":"ChannelAlreadyExists","inputs":[]},{"type":"error","name":"ChannelDoesNotExist","inputs":[]},{"type":"error","name":"ChannelNameTooShort","inputs":[]}],"bytecode":{"object":"0x608060405234801561001057600080fd5b5061047a806100206000396000f3fe608060405234801561001057600080fd5b506004361061004c5760003560e01c806378c4cb2114610051578063cb6af4cb146100a2578063e7df69b1146100b7578063f4e62791146100ca575b600080fd5b61008561005f366004610345565b80516020818301810180516001825292820191909301209152546001600160a01b031681565b6040516001600160a01b0390911681526020015b60405180910390f35b6100b56100b0366004610345565b610108565b005b6100b56100c5366004610382565b61021a565b6100f86100d8366004610345565b805160208183018101805160008252928201919093012091525460ff1681565b6040519015158152602001610099565b600181511161012a57604051635b154b6560e11b815260040160405180910390fd5b60008160405161013a91906103ed565b9081526040519081900360200190205460ff161561016b57604051630ec0f14960e01b815260040160405180910390fd5b600160008260405161017d91906103ed565b908152604051908190036020018120805492151560ff199093169290921790915533906001906101ae9084906103ed565b90815260405190819003602001812080546001600160a01b03939093166001600160a01b03199093169290921790915533907f2f7bce1c625fb5132682855127ffb7b5f7878a73159cbcd9be08c43371aa94259061020f9084904290610409565b60405180910390a250565b60008160405161022a91906103ed565b9081526040519081900360200190205460ff1661025a57604051636ddd9da960e01b815260040160405180910390fd5b336001600160a01b0316827f0e29ffe23867e3783d23e7a2a15726d34fb6a7f0efe01a2c7cc7a1604a9eff708342604051610296929190610409565b60405180910390a35050565b634e487b7160e01b600052604160045260246000fd5b600082601f8301126102c957600080fd5b813567ffffffffffffffff808211156102e4576102e46102a2565b604051601f8301601f19908116603f0116810190828211818310171561030c5761030c6102a2565b8160405283815286602085880101111561032557600080fd5b836020870160208301376000602085830101528094505050505092915050565b60006020828403121561035757600080fd5b813567ffffffffffffffff81111561036e57600080fd5b61037a848285016102b8565b949350505050565b6000806040838503121561039557600080fd5b82359150602083013567ffffffffffffffff8111156103b357600080fd5b6103bf858286016102b8565b9150509250929050565b60005b838110156103e45781810151838201526020016103cc565b50506000910152565b600082516103ff8184602087016103c9565b9190910192915050565b60408152600083518060408401526104288160608501602088016103c9565b602083019390935250601f91909101601f19160160600191905056fea26469706673582212204373d8856ee3213792bf078ff00ab55d6fc31459ec6f78ebb05ce1ea0391dcc464736f6c63430008140033","linkReferences":{}},"methodIdentifiers":{"channelCreators(string)":"78c4cb21","channelExists(string)":"f4e62791","createChannel(string)":"cb6af4cb","sendMessage(bytes32,string)":"e7df69b1"},"id":21}